:100000000C9464110C94063D0C94DB3C0C94B03CB5
:100010000C94853C0C945A3C0C942F3C0C94043C5E
:100020000C94D93B0C9495110C9495110C9495114A
:100030000C9495110C9410610C9495110C949511DD
:100040000C9495110C94A8760C9495110C94951120
:100050000C9495110C9495110C94E8810C948F3BA1
:100060000C9495110C9450B50C9495110C94951119
:100070000C9495110C9495110C9495110C94951168
:100080000C9495110C9495110C9495110C94951158
:100090000C9495110C9495110C9495110C94313D80
:1000A0000C9495110C9495110C9495110C94951138
:1000B0000C9495110C9495110C9495110C94951128
:1000C0000C9495110C9495110C9495110C94951118
:1000D0000C9495110C9495110C94B1B70C9472B7C3
:1000E0000C949511DB2DF92D2F2E4D2E632E912E74
:1000F000042FA82F6030B830E9300A3188356531D7
:100100006F3188319A31AB31D331F93117326D32D9
:10011000773281328B3295329F328835B7328835CB
:10012000C032883588352F3388358835883588350D
:1001300088358835C434E6342535883588358835A2
:1001400088358835883588352C3588358835883523
:1001500088358835883588358835883588358835B7
:1001600088358835883588358835883588358835A7
:100170008835883588358835883588358835883597
:100180008835883588356F352439273916391A3935
:1001900020395E392B392F39353939393D394339D1
:1001A00047394B395E39513955395939AB3AB03A3B
:1001B000B53ABF3AC93A423BD33ADB3AE33AED3A71
:1001C000F73A013B103B1A3B423B243B2E3B383B6A
:1001D0004C825C827B828B82A682AB82AE82B382AF
:1001E000B682BB82BE82C382CD82084AD73B3BCE59
:1001F000016E84BCBFFDC12F3D6C74319ABD568326
:100200003DDA3D00C77F11BED9E4BB4C3E916BAADD
:10021000AABE000000803F05A84CCDB2D44EB9382C
:1002200036A9020C50B9918688083CA6AAAA2ABE13
:10023000000000803F004E414E494E495459494EFE
:1002400046CDCCCC3D0AD7233C17B7D13877CC2B41
:10025000329595E6241FB14F0A000020410000C8E6
:100260004200401C4620BCBE4CCA1B0E5AAEC59D67
:1002700074434F4D4D554E49434154494F4E0044F0
:10028000525952554E004552524F525300494E4614
:100290004F004543484F0020746F6F206C6F6E67AE
:1002A00020657874727573696F6E207072657665FB
:1002B0006E7465640A0020636F6C642065787472E4
:1002C0007573696F6E2070726576656E7465640A09
:1002D0000047322F47332062616420706172616D84
:1002E00065746572730A00536C6565702E2E2E005E
:1002F0004A3034003344205072696E746572207243
:10030000656164792E00526573756D696E67207042
:1003100072696E74005761697420666F722075731C
:1003200065722E2E2E004E6F206D6F76652E004565
:100330006E642066696C65206C6973740A0042659E
:1003400067696E2066696C65206C6973740A005376
:1003500044207072696E74696E67206279746520DA
:10036000004E6F74205344207072696E74696E671A
:100370000A0046696C652064656C657465643A00C2
:1003800044656C6574696F6E206661696C65642C88
:100390002046696C653A20006F70656E2066616961
:1003A0006C65642C2046696C653A200025697300F1
:1003B00025696D20256973002569682025696D20F0
:1003C00025697300256964202569682025696D20E9
:1003D00025697300256979202569642025696820CD
:1003E00025696D20256973005072696E74207469E7
:1003F0006D653A200048656174696E672E2E2E0087
:100400003344205072696E7465722072656164793C
:100410002E0092028D0286027F0271026F666600D4
:1004200044454255473A004B494C4C45442E200028
:100430006F6B004A3033004A3034004A303700488E
:10044000656174696E6720646F6E652E003F0A00F7
:1004500020573A004A30360048656174696E672E4D
:100460002E2E003344205072696E746572207265BE
:100470006164792E0042656420646F6E652E004AC7
:100480003039003F0A0020573A0042656420486531
:100490006174696E672E004A303800334420507210
:1004A000696E746572204F66662E004649524D573C
:1004B0004152455F4E414D453A4D61726C696E2027
:1004C000312E312E302D52433820284769746875FB
:1004D000622920534F555243455F434F44455F5572
:1004E000524C3A68747470733A2F2F676974687548
:1004F000622E636F6D2F4D61726C696E4669726D0D
:10050000776172652F4D61726C696E2050524F5445
:100510004F434F4C5F56455253494F4E3A312E3060
:10052000204D414348494E455F545950453A334464
:10053000205072696E746572204558545255444576
:10054000525F434F554E543A3120555549443A6312
:10055000656465326132662D343161322D34373451
:10056000382D396231322D63353563363266333694
:100570003766660A007A5F6D696E3A2000795F6DB2
:1005800061783A2000795F6D696E3A2000785F6D7E
:10059000696E3A20005265706F7274696E672065EB
:1005A0006E6473746F70207374617475730A004D98
:1005B00031343520533C696E6465783E206F757424
:1005C000206F662072616E67652028302D31290A00
:1005D0000020643A0020693A0020703A0020643A12
:1005E0000020693A0020703A0043290A0061626CD9
:1005F000656420286D696E2074656D702000436FFE
:100600006C6420657874727564657320617265200E
:10061000004F666673657473206170706C69656401
:10062000004572723A20546F6F2066617221005447
:100630006F6F206661722066726F6D2072656665ED
:1006400072656E636520706F696E740A0041637431
:100650006976652045787472756465723A20005534
:100660006E6B6E6F776E20636F6D6D616E643A2096
:1006700022004A3032004A3136004A333820004ADC
:10068000333920004A333420004A333520004A31C0
:10069000372000526561644572726F72004A3333CD
:1006A000200053644C6F7374004A333320006F751D
:1006B0007452616E6765004A3333200054304472CF
:1006C0006F70004A333320004D61785431004A3353
:1006D0003320004D61785430004A333320004D6997
:1006E0006E5431004A333320004D696E5430004A55
:1006F00033332000526561645344206572726F7217
:1007000021004A3333200056312E332E31004A3334
:1007100033200047312058313330205931303020D8
:10072000205A3530204635303030004731205A309D
:10073000204633303000473120583330205931398A
:1007400030204635303030004731205A352046358C
:100750003030004731205A302046333030004731A6
:10076000205832343020593139302046353030303D
:10077000004731205A352046353030004731205A65
:100780003020463330300047312058323430205941
:100790003330204635303030004731205A3520463E
:1007A000353030004731205A302046333030004752
:1007B0003120583330205933302046353030300026
:1007C0004731205A352046353030004A3032004A11
:1007D00031320047393000473120452569463530F0
:1007E0003000473120452D302E31462569004731F4
:1007F0002045302E31462569004731205A2569466B
:100800002569004731205A2D302E31462569004791
:1008100031205A302E31462569004731205925694B
:1008200046256900473120592D302E314625690073
:1008300047312059302E314625690047312058254F
:100840006946256900473120582D302E31462569EB
:100850000047312058302E31462569004739310094
:1008600047323800473238205A0047323820590082
:100870004732382058004132305620004F4B004A52
:100880003036004A3034004A3136004A30350045AF
:100890004E4400464E20004A3032003939393A3948
:1008A0003939004D00480041375620004136562066
:1008B0002D2D2D0041365620005A3A2000593A205D
:1008C00000583A200041355600413456200041334B
:1008D000562000413256200041315620004130560A
:1008E000200045525220004D313130004A31300055
:1008F00000002100240027002A002D0030003300D2
:1009000001010000040107010A010000200023008A
:10091000260029002C002F003200000100000301F6
:100920000601090100000A0B02090C0D0E0807035D
:1009300004010000000000000000000000000000B2
:1009400000000000000000000000000000000000A7
:100950001211100000000000000000000000000064
:10096000000000000000000000007C3C3E5E2B3DCB
:100970003F2F5B5D3B2C2A225C004572726F722018
:1009800077726974696E6720746F20454550524FC5
:100990004D210A00206279746573290A0053657439
:1009A00074696E67732053746F7265642028004504
:1009B0004550524F4D20636865636B73756D206DB4
:1009C00069736D617463680A0020627974657329C4
:1009D0000A002073746F7265642073657474696EA5
:1009E00067732072657472696576656420280048B3
:1009F000617264636F6465642044656661756C74DC
:100A00002053657474696E6773204C6F616465640C
:100A10000A0020204D3230302044300A0020204D82
:100A20003230302044002044697361626C65640A8E
:100A30000046696C616D656E742073657474696ECF
:100A400067733A0020440020490020204D333034A1
:100A500020500020440020490020204D3330312018
:100A600050005049442073657474696E67733A0A84
:100A70000020460020420020480020204D3134351F
:100A80002053004D6174657269616C206865617402
:100A9000757020706172616D65746572733A0A00D9
:100AA000205A0020590020204D323036205800486E
:100AB0006F6D65206F666673657420286D6D290AF9
:100AC00000204500205A00205900205800204200F4
:100AD00020540020204D323035205300416476618F
:100AE0006E636564207661726961626C65733A2039
:100AF000533D4D696E20666565647261746520289A
:100B00006D6D2F73292C20543D4D696E20747261D8
:100B100076656C20666565647261746520286D6D0C
:100B20002F73292C20423D6D696E696D756D2073A0
:100B300065676D656E742074696D6520286D732915
:100B40002C20583D6D6178696D756D205859206A6B
:100B500065726B20286D6D2F73292C20205A3D6DF6
:100B60006178696D756D205A206A65726B20286DF9
:100B70006D2F73292C2020453D6D6178696D756D51
:100B80002045206A65726B20286D6D2F73290A003D
:100B900020540020520020204D323034205000419B
:100BA0006363656C65726174696F6E733A20503D62
:100BB0007072696E74696E672C20523D7265747232
:100BC00061637420616E6420543D74726176656C5B
:100BD0000A00204500205A0020590020204D3230C4
:100BE000312058004D6178696D756D2041636365F2
:100BF0006C65726174696F6E20286D6D2F73322978
:100C00003A0A00204500205A0020590020204D3289
:100C100030332058004D6178696D756D20666565CB
:100C200064726174657320286D6D2F73293A0A0010
:100C3000204500205A0020590020204D39322058EC
:100C40000053746570732070657220756E69743A14
:100C50000A004D6F76652058004D6F76652059006B
:100C60004D6F7665205A0045787472756465720020
:100C70004578747275646572004D6F7665205A0010
:100C80004D6F76652059004D6F76652058004D6F89
:100C900076652061786973004D6F766520302E315E
:100CA0006D6D004D6F766520316D6D004D6F766511
:100CB0002031306D6D005072657061726500526553
:100CC00073746F7265206661696C73616665004C50
:100CD0006F6164206D656D6F72790053746F72651A
:100CE000206D656D6F72790046696C616D656E741B
:100CF000004D6F74696F6E0054656D70657261743C
:100D0000757265004D61696E005072656865617449
:100D10002041425320636F6E6600507265686561C2
:100D20007420504C4120636F6E66005049442D443E
:100D3000005049442D44005049442D490050494435
:100D40002D49005049442D50005049442D50002059
:100D50000220466163740020022046616374002013
:100D600002204D6178002002204D61780020022091
:100D70004D696E002002204D696E004F6666004F7F
:100D80006E20004175746F74656D700046616E2051
:100D900073706565640046616E20737065656400FC
:100DA00042656400426564004E6F7A7A6C65004E5D
:100DB0006F7A7A6C6500436F6E74726F6C00537457
:100DC0006F7265206D656D6F7279004265640042D7
:100DD0006564004E6F7A7A6C65004E6F7A7A6C6546
:100DE0000046616E2073706565640046616E207315
:100DF000706565640054656D7065726174757265C7
:100E0000004B494C4C45442E2000202D20496E7645
:100E1000616C6964206578747275646572206E75A2
:100E20006D62657220210A002020506C616E6E6533
:100E30007242756666657242797465733A20002065
:100E400046726565204D656D6F72793A2000436F7B
:100E50006D70696C65643A204D61792031322032C1
:100E60003032300A00207C20417574686F723A205D
:100E7000284A6F6C6C792C20787878787878787834
:100E80002E434F2E290A00323031362D31322D308B
:100E9000362031323A303000204C61737420557066
:100EA00064617465643A2000312E312E302D524336
:100EB000380A0056312E332E310A0020536F6674E3
:100EC000776172652052657365740A0020576174FA
:100ED0006368646F672052657365740A002042720C
:100EE0006F776E206F75742052657365740A0020E9
:100EF00045787465726E616C2052657365740A0082
:100F0000506F77657255700A004A31320073746110
:100F100072740A004731205A2B32300047393100B1
:100F20006572726F722077726974696E6720746F70
:100F30002066696C650A004A3132004A3033004A43
:100F4000313800446F6E6520736176696E67206684
:100F5000696C652E0A004D323900052E2E004D6158
:100F6000696E004A303100436172642072656D6FB2
:100F7000766564004A3030004361726420696E73A4
:100F80006572746564005344204C4F5354004E6F97
:100F90002053442063617264005072696E7420664D
:100FA000726F6D2053440053746F70207072696EBD
:100FB0007400526573756D65207072696E740050AF
:100FC00061757365207072696E7400436F6E747220
:100FD0006F6C00507265706172650054756E6500CB
:100FE000496E666F2073637265656E00466C6F773D
:100FF00000466C6F770046616E2073706565640013
:1010000046616E20737065656400426564004265E8
:1010100064004E6F7A7A6C65004E6F7A7A6C650068
:101020005370656564005370656564004D61696E59
:10103000005072656865617420504C4120426564BF
:10104000005072656865617420504C4100507265B3
:101050007061726500507265686561742041425329
:101060002042656400507265686561742041425396
:101070000050726570617265004D34323800436F04
:101080006F6C646F776E00507265686561742041A3
:101090004253005072656865617420504C41004DA8
:1010A00038340044697361626C65207374657070D4
:1010B000657273004D6F76652061786973005365C2
:1010C0007420686F6D65206F666673657473004782
:1010D0003238004175746F20686F6D65004D61692D
:1010E0006E004E6F204C696E65204E756D626572A4
:1010F000207769746820636865636B73756D2C2055
:101100004C617374204C696E653A20004B494C4C1D
:1011100045442E200053544F505045442E2000503B
:1011200072696E7465722073746F70706564206488
:10113000756520746F206572726F72732E20466918
:101140007820746865206572726F7220616E642009
:10115000757365204D39393920746F207265737449
:101160006172742E202854656D7065726174757299
:10117000652069732072657365742E205365742031
:10118000697420616674657220726573746172742B
:10119000696E67290A004E6F20436865636B73753B
:1011A0006D2077697468206C696E65206E756D625C
:1011B00065722C204C617374204C696E653A200076
:1011C000636865636B73756D206D69736D617463BE
:1011D000682C204C617374204C696E653A20004C79
:1011E000696E65204E756D626572206973206E6F41
:1011F00074204C617374204C696E65204E756D626D
:1012000065722B312C204C617374204C696E653AE9
:1012100020004D313130004A3134004D3331004D22
:10122000383420582059205A2045005344207265F4
:101230006164206572726F7200534420726561644C
:10124000206572726F720A00446F6E652070726959
:101250006E74696E672066696C650A0020496E7657
:10126000616C696420657874727564657220000031
:101270000088430000574300005243000008C100AB
:10128000000000000000002042403A0020403A00E8
:10129000202F0020423A00202F0020543A0024F44E
:1012A000D43050C38E20C2A24017828B7011127AA4
:1012B000910D816CD90AA861E108C7586607615190
:1012C00043061E4B5D05C145A7041A411104093DA3
:1012D0009803713931034036DB0265339102D43013
:1012E0005402802E1D02632CEE01752AC501B02820
:1012F000A001102781018F2564012B244B01E022DE
:101300003401AC211F018D200D01801FFC00841EC3
:10131000ED00971DDF00B81CD200E61BC600201BA5
:10132000BC00641AB200B219A8000A19A0006A1819
:101330009900D117910040178B00B5168400311623
:101340007E00B31579003A157300C7146F00581466
:101350006A00EE1366008813630025135E00C7124F
:101360005B006C12570015125400C111510070112E
:101370004F0021114B00D61049008D104700461038
:10138000440002104200C00F4000800F3E00420F98
:101390003C00060F3B00CB0E3800930E37005C0E6E
:1013A0003500270E3400F30D3200C10D3100900DD1
:1013B0003000600D2E00320D2D00050D2C00D90CD3
:1013C0002B00AE0C2900850C29005C0C2700350C85
:1013D00027000E0C2600E80B2400C40B2400A00BF1
:1013E00023007D0B23005A0B2100390B2100180B21
:1013F0002000F80A1F00D90A1E00BB0A1E009D0A21
:101400001D00800A1D00630A1C00470A1B002C0AED
:101410001B00110A1A00F7091A00DD091900C40996
:101420001900AB091900920917007B09180063091C
:1014300017004C09160036091600200916000A0983
:101440001500F5081500E0081400CC081400B808D1
:101450001400A4081400900813007D0812006B0803
:10146000130058081200460812003408110023081F
:1014700011001208110001081100F0071000E00728
:101480001000D0071000C0071000B0070F00A10720
:10149000100091070E0083070F0074070F00650707
:1014A0000E0057070E0049070E003B070D002E07E0
:1014B0000E0020070D0013070D0006070D00F906AA
:1014C0000C00ED060D00E0060C00D4060C00C8066A
:1014D0000C00BC060C00B0060C00A4060B0099061C
:1014E0000C008D060B0082060B0077060B006C06C5
:1014F0000B0061060A0057060B004C060A00420664
:101500000A0038060A002E060A0024060A001A06F7
:101510000A001006090007060A00FD050900F40587
:101520000900EB050900E2050900D9050900D0050D
:101530000900C7050900BE050900B5050800AD058D
:101540000800A50509009C050800940508008C0505
:101550000800840508007C050800740508006C0577
:101560000700650508005D050700560508004E05E3
:10157000070047050700400508003805070031054A
:1015800007002A050700230507001C0506001605AD
:1015900007000F0507000805060002050700FB0409
:1015A0000600F5040700EE040600E8040600E20465
:1015B0000700DB040600D5040600CF040600C904BA
:1015C0000600C3040600BD040600B7040600B1040B
:1015D0000500AC040600A6040600A00405009B0458
:1015E000060095040500900406008A0405008504A1
:1015F0000500800406007A040500750405007004E7
:1016000005006B04050066040500610405005C0428
:10161000050057040500520405004D040500480468
:101620000500430405003E0404003A0405003504A7
:101630000500300404002C040500270404002304E2
:1016400005001E0404001A04040016040500110419
:1016500004000D040400090405000404040000044F
:101660000400FC030400F8030400F4030400F00386
:101670000400EC030400E8030400E4030400E003B6
:101680000400DC030400D8030400D4030400D003E6
:101690000400CC030400C8030300C503030024F4C2
:1016A00004D9201BC40C5C0E9804C4095F026507B2
:1016B0007101F405F900FB04B30048048700C1037D
:1016C00069005803550003034500BE023A00840236
:1016D000310053022A002902250004022000E401FF
:1016E0001C00C8011900AF01170098011400840103
:1016F0001300710110006101100051010E0043013F
:101700000D0036010B002B010B0020010B00150111
:1017100009000C01090003010800FB000800F300A8
:101720000800EB000700E4000600DE000600D80019
:101730000600D2000600CC000500C7000500C2006C
:101740000500BD000400B9000400B5000400B100AC
:101750000400AD000400A9000400A5000300A200DD
:1017600003009F0004009B00030098000300950005
:10177000020093000300900003008D0002008B0024
:10178000030088000200860002008400030081003C
:1017900002007F0002007D0002007B000200790051
:1017A000020077000100760002007400020072005F
:1017B0000100710002006F0002006D0001006C006A
:1017C00002006A0001006900020067000100660073
:1017D0000100650001006400020062000100610078
:1017E0000100600001005F0002005D0001005C007C
:1017F00001005B0001005A0001005900010058007F
:10180000010057000100560001005500010054007E
:10181000010053000000530001005200010051007C
:101820000100500001004F0001004E0000004E007A
:1018300001004D0001004C0001004B0000004B0076
:1018400001004A0001004900010048000000480072
:10185000010047000100460000004600010045006D
:101860000000450001004400010043000000430067
:101870000100420000004200010041000000410060
:101880000100400001003F0000003F0001003E0059
:1018900000003E0001003D0000003D0001003C0052
:1018A00000003C0000003C0001003B0000003B0049
:1018B00001003A0000003A00010039000000390040
:1018C0000100380000003800000038000100370037
:1018D000000037000100360000003600000036002E
:1018E0000100350000003500000035000100340023
:1018F0000000340000003400010033000000330019
:10190000000033000100320000003200000032000D
:101910000100310000003100000031000100300002
:10192000000030000000300001002F0000002F00F8
:1019300000002F0000002F0001002E0000002E00EC
:1019400000002E0001002D0000002D0000002D00E1
:1019500000002D0001002C0000002C0000002C00D5
:1019600000002C0001002B0000002B0000002B00C9
:1019700000002B0001002A0000002A0000002A00BD
:1019800000002A00010029000000290000002900B1
:1019900000002900000029000100280000002800A4
:1019A0000000280000002800000028000100270097
:1019B000000027000000270000002700000027008B
:1019C000010026000000260000002600000026007E
:1019D0000000260001002500000025000000250071
:1019E0000000250000002500000025000100240063
:1019F0000000240000002400000024000000240057
:101A00000100230000002300000023000000230049
:101A1000000023000000230000002300010022003A
:101A2000000022000000220000002200000022002E
:101A30000000220001002100000021000000210020
:101A40000000210000002100000021000000210012
:101A50000100200000002000000020000000200005
:101A600000002000000020000000200000002000F6
:101A700001001F0000001F0000001F0000001F00E9
:101A800000001F0000001F0000001F0001001E00DA
:101A900000001E0000001E0000001E0000004D3867
:101AA00034004572723A204D415854454D50204201
:101AB0004544004572723A204D415854454D5000FE
:101AC0004D415854454D5020747269676765726581
:101AD00064004572723A204D494E54454D502042A3
:101AE0004544004572723A204D494E54454D5000D0
:101AF0004D494E54454D5020747269676765726553
:101B0000640025753A2530327500253032753A2546
:101B1000303275002D2D2D005344005A00590058C5
:101B200000012000012000010210202008081020E0
:101B30004010204080020102010804020101020459
:101B40000810204080804020100804020180040218
:101B5000018040201008040201080402010102046F
:101B6000081020408001020408102040800000225C
:101B700000250028002B002E003100340002010057
:101B800000050108010B0105050505070508080802
:101B900008020202020A0A080804040404010101FE
:101BA0000101010101030303030303030304070706
:101BB000070C0C0C0C0C0C0C0C02020202060606A4
:101BC00006060606060B0B0B0B0B0B0B0B026175C7
:101BD000746F25692E67004D3234004D3233202555
:101BE00073004573746570732F6D6D004573746574
:101BF00070732F6D6D005A73746570732F6D6D0067
:101C00005A73746570732F6D6D00597374657073BA
:101C10002F6D6D005973746570732F6D6D0058735F
:101C2000746570732F6D6D005873746570732F6DCC
:101C30006D00412D74726176656C00412D74726186
:101C400076656C00412D7265747261637400412D7C
:101C50007265747261637400416D61782045004162
:101C60006D6178204500416D6178205A00416D61B9
:101C700078205A00416D6178205900416D617820CB
:101C80005900416D6178205800416D6178205800FD
:101C90005654726176206D696E00565472617620DA
:101CA0006D696E00566D696E00566D696E00566DF9
:101CB0006178204500566D6178204500566D617849
:101CC000205A00566D6178205A00566D617820596F
:101CD00000566D6178205900566D61782058005685
:101CE0006D617820580056652D6A65726B005665E7
:101CF0002D6A65726B00567A2D6A65726B00567A92
:101D00002D6A65726B0056792D6A65726B00567983
:101D10002D6A65726B0056782D6A65726B00567875
:101D20002D6A65726B00416363656C004163636596
:101D30006C00436F6E74726F6C0046696C2E2044A9
:101D400069612E0046696C2E204469612E004F6641
:101D500066004F6E20004520696E206D6D33004394
:101D60006F6E74726F6C00473930004731205A2D06
:101D700032300053442063617264206F6B0A006F3D
:101D800070656E526F6F74206661696C65640A00DD
:101D9000766F6C756D652E696E6974206661696C0D
:101DA00065640A004572726F723A00534420696E8E
:101DB0006974206661696C0A0057726974696E679C
:101DC00020746F2066696C653A20004A3231006FDA
:101DD00070656E206661696C65642C2046696C656F
:101DE0003A20004A3231006F70656E206661696C7E
:101DF00065642C2046696C653A20004A3230004602
:101E0000696C652073656C65637465640A002053B2
:101E1000697A653A200046696C65206F70656E6569
:101E2000643A20004A3231006F70656E2066616945
:101E30006C65642C2046696C653A20002066696CEC
:101E4000653A20004E6F7720002220706F730022C9
:101E500020706172656E743A2200535542524F559C
:101E600054494E452043414C4C207461726765745F
:101E70003A22004B494C4C45442E2000747279693B
:101E80006E6720746F2063616C6C207375622D67C0
:101E9000636F64652066696C657320776974682078
:101EA000746F6F206D616E79206C6576656C732E32
:101EB000204D4158206C6576656C2069733A00208E
:101EC000746F6F206C6F6E672065787472757369BC
:101ED0006F6E2070726576656E7465640A004A31B3
:101EE000330020636F6C6420657874727573696F5A
:101EF0006E2070726576656E7465640A0052657353
:101F0000656E643A20006F6B004A343120004A3419
:101F10003020004A3135004A3233004B494C4C45A1
:101F2000442E20004B494C4C45442E2000205A3A68
:101F30000020593A0020436F756E7420583A2000F3
:101F400020453A00205A3A0020593A00583A0053A6
:101F5000657474696E672054726176656C204163A4
:101F600063656C65726174696F6E3A2000536574C5
:101F700074696E6720526574726163742041636393
:101F8000656C65726174696F6E3A20005365747494
:101F9000696E67205072696E7420416363656C6579
:101FA000726174696F6E3A200053657474696E676C
:101FB000205072696E7420616E642054726176657F
:101FC0006C20416363656C65726174696F6E3A2061
:101FD00000205A00205900580020204D61783A20F6
:101FE00000205A00205900580020204D696E3A20E8
:101FF000004F6E20004F666600536F667420656E5A
:102000006473746F70733A20004B6420002364651E
:1020100066696E65202044454641554C545F004B2F
:1020200069200023646566696E6520204445464149
:10203000554C545F004B70200023646566696E65E3
:10204000202044454641554C545F005049442041AE
:1020500075746F74756E652066696E697368656402
:10206000212050757420746865206C617374204B56
:10207000702C204B6920616E64204B6420636F6E6E
:102080007374616E74732066726F6D2062656C6F1D
:102090007720696E746F20436F6E66696775726131
:1020A00074696F6E2E680A00504944204175746F40
:1020B00074756E65206661696C6564212074696D54
:1020C000656F75740A00504944204175746F7475CA
:1020D0006E65206661696C6564212054656D70656C
:1020E00072617475726520746F6F20686967680A21
:1020F00000204B643A2000204B693A2000204B70AE
:102100003A20000A20436C6173736963205049448C
:10211000200A002054753A2000204B753A200020F8
:102120006D61783A2000206D696E3A200020643A93
:10213000200020626961733A20004A3034004A303E
:102140003500506C6561736520726573657400506D
:1021500052494E5445522048414C54454400507217
:10216000696E7465722068616C7465642E206B6999
:102170006C6C28292063616C6C6564210A00000086
:1021800008C100000000000000005761726E696E17
:10219000673A20486F6D696E672042756D70204404
:1021A000697669736F72203C20310A000000A040FC
:1021B0000000A0400000004000408C430000574356
:1021C00000005243FFFFFF1000C90210012C014024
:1021D00001220170011801B0010E01F0010401504B
:1021E00002FA00B002F0003003E600D003DC0090F9
:1021F00004D2007005C800A006BE000008B400B0FC
:1022000009AA00D00BA000600E960060118C00009F
:1022100015820020197800C01D6E00A0226400B055
:10222000275A00902C500000314600E0343C00104A
:10223000383200903A2800603C1E00A03D14008017
:102240003E0A00203F0000656E7175657565696E18
:10225000672022006563686F3A006265640A002C9B
:102260002073797374656D2073746F707065642169
:10227000204865617465725F49443A2000544845BE
:10228000524D414C2052554E4157415900546865BA
:10229000726D616C2052756E61776179004A3130E0
:1022A0000048656174696E67206661696C656400E9
:1022B00048656174696E67206661696C6564004A8F
:1022C0003130000037CD16CD11241FBECFEFD1E243
:1022D000DEBFCDBF00E00CBF15E0A0E0B2E0E2E25F
:1022E000F6EB01E00BBF02C007900D92A236B107DA
:1022F000D9F727E1A2E6B5E001C01D92A234B207EA
:10230000E1F711E1C3E6D1E100E006C02197010940
:10231000802FFE010E9407DAC236D10780E008074D
:10232000A9F70E9461C30C9400DB0C9400002F926B
:102330003F924F925F926F927F928F929F92AF9255
:10234000BF92CF92DF92EF92FF920F931F93CF93A2
:10235000DF93CDB7DEB7C657D1090FB6F894DEBF0D
:102360000FBECDBF00916F0920E6029F80011124AE
:102370000151184F10937E0500937D058091FA0F4F
:1023800080FF18C0E4E5F2E284917F013FEFE31A99
:10239000F30A882321F00E94B2B3F701F5CFD801E8
:1023A0008D918D01882319F00E94B2B3F8CF8AE095
:1023B0000E94B2B320917D0530917E05F9018081A4
:1023C0002F5F3F4F8032D1F3F0937E05E0937D0580
:1023D0008E3469F0D0907D05C0907E056AE270E091
:1023E0008D2D9C2D0E944FDA0097D1F420C0818161
:1023F00090ED980F9A3010F08D3261F73296DF0130
:1024000031962C9120532A30D0F3CD01FC01019656
:1024100020812032D9F3F0937E05E0937D05DACF59
:10242000FC0131968291803231F08A3221F0AD2D5B
:10243000BC2D9D9102C01082F5CFFD0180811196C7
:102440008032D9F380538A3010F00C94EE2BE12CBB
:10245000F12C2AE02E9DB0012F9D700D11247B01DF
:10246000B0E3EB1AF1088191E80EF11C87FDFA94B4
:10247000808180538A3070F38F013196D8018C911E
:102480008032D1F310937605009375059D3411F4D5
:102490000C94941B943511F40C942A2B973411F05E
:1024A0000C94EE2BB4E0EB16F10409F494C640F45E
:1024B0008091EF02F2E0EF16F10408F032C123C080
:1024C0002AE5E216F10411F40C94141B70F445E0B3
:1024D000E416F10409F4BDC65CE1E516F10411F05F
:1024E0000C946A2B0BE014E0FEC68BE5E816F104B1
:1024F00011F40C94181B9CE5E916F10411F40C94EA
:102500001D1B0C946A2B882311F40C946A2B0E94D7
:102510004072809163058130B1F480916605882313
:1025200091F020E030E040EA51E46091E9107091D0
:10253000EA108091EB109091EC100E94E5D287FF99
:1025400002C00C946A2B8DED90E10E946AAA0E9451
:10255000A7B38091FA0F83FD93C0C090E910D0908B
:10256000EA10E090EB10F090EC102091E40730912D
:10257000E5074091E6075091E707C701B6010E94C1
:10258000E5D2882309F47CC08091F50F811134C015
:102590002091E1023091E2024091E3025091E40285
:1025A00060910013709101138091021390910313B5
:1025B0000E94E5D287FF20C0C092E407D092E507D1
:1025C000E092E607F092E707E4E5F2E284918F01FA
:1025D0000F5F1F4F882321F00E94B2B3F801F6CF9E
:1025E000E6EBF2E084918F010F5F1F4F882321F00B
:1025F0000E94B2B3F801F6CFC090E910D090EA1073
:10260000E090EB10F090EC102091E4073091E5079A
:102610004091E6075091E707C701B6010E94FBD63B
:102620000E9440D897FF07C090958095709561955E
:102630007F4F8F4F9F4F693C71058105910504F1D4
:10264000C092E407D092E507E092E607F092E70730
:10265000E4E5F2E284918F010F5F1F4F882321F0A0
:102660000E94B2B3F801F6CFE7E9F2E084918F015E
:102670000F5F1F4F882321F00E94B2B3F801F6CFFD
:102680002091DD103091DE104091DF105091E0106C
:102690006091D8077091D9078091DA079091DB0794
:1026A0000E94E5D281111DC02091E1103091E2100D
:1026B0004091E3105091E4106091DC077091DD07C8
:1026C0008091DE079091DF070E94E5D2811109C059
:1026D00060910002709101028091020290910302C8
:1026E0001AC06091370270913802072E000C880BD7
:1026F000990B0E94EBD2209100023091010240918F
:102700000202509103020E944AD32AE037ED43E2CD
:102710005CE30E944AD30E94D0700E94C6700C9461
:102720006A2B882311F40C946A2B11E0A2E0EA16BC
:10273000F10409F010E00E94407282E50E94557198
:10274000882309F452C10E9417726B017C014090EA
:10275000D8075090D9076090DA077090DB07209176
:10276000DC073091DD074091DE075091DF072BAF8A
:102770003CAF4DAF5EAF8091DD109091DE10A09127
:10278000DF10B091E01023968CAF9DAFAEAFBFAF1E
:1027900023972091E1103091E2104091E310509185
:1027A000E4102B962CAF3DAF4EAF5FAF2B9720E0E0
:1027B00030E0A901C701B6010E94E5D2882309F4DF
:1027C000F0C4A301920123966CAD7DAD8EAD9FAD9B
:1027D00023970E94E5D281110FC02BAD3CAD4DADCA
:1027E0005EAD2B966CAD7DAD8EAD9FAD2B970E94EF
:1027F000E5D2882309F4D5C420E030E0A901C7015F
:10280000B6010E94E5D2881F8827881F18130BC0C5
:1028100080E090E0A0E8BFE367968CAF9DAFAEAFDD
:10282000BFAF67970AC020E030E040E85FEB6796F3
:102830002CAF3DAF4EAF5FAF6797A30192012396D8
:102840006CAD7DAD8EAD9FAD23970E94FBD62F96CC
:102850006CAF7DAF8EAF9FAF2F972BAD3CAD4DAD25
:102860005EAD2B966CAD7DAD8EAD9FAD2B970E946E
:10287000FBD663966CAF7DAF8EAF9FAF63972F96FD
:102880002CAD3DAD4EAD5FAD2F97CA01B9010E9491
:102890004AD34B015C0163962CAD3DAD4EAD5FADAF
:1028A0006397CA01B9010E944AD39B01AC01C501DB
:1028B000B4010E94FCD60E9467D927966CAF7DAF09
:1028C0008EAF9FAF279720E030E040E05FE30E94AB
:1028D0004AD34B015C01A7019601C701B6010E94D2
:1028E0004AD36B017C01A5019401C501B4010E948A
:1028F0004AD39B01AC01C701B6010E94FBD60E94DE
:1029000067D99B01AC0167966CAD7DAD8EAD9FAD77
:1029100067970E944AD34B015C0123962CAD3DADD5
:102920004EAD5FAD2397C301B2010E94FCD620E0FB
:1029300030E040E05FE30E944AD36B017C01639684
:102940006CAD7DAD8EAD9FAD6397905827962CAD45
:102950003DAD4EAD5FAD27970E94D8D79B01AC012E
:10296000C501B4010E944AD39B01AC01C701B60165
:102970000E94FCD6A30192010E94FBD66B017C0150
:102980002B962CAD3DAD4EAD5FAD2B976BAD7CADB9
:102990008DAD9EAD0E94FCD620E030E040E05FE3CC
:1029A0000E944AD32B013C0127962CAD3DAD4EAD84
:1029B0005FAD27972F966CAD7DAD8EAD9FAD2F97F8
:1029C0000E94D8D79B01AC01C501B4010E944AD333
:1029D0009B01AC01C301B2010E94FCD62BAD3CAD02
:1029E0004DAD5EAD0E94FBD614C089E40E945571C6
:1029F000882329F00E9417726B017C0103C0C12C4F
:102A0000D12C76018AE40E9455718823D9F00E9466
:102A100017726BAF7CAF8DAF9EAF20E030E0A901A5
:102A2000C701B6010E94E5D281111AC020E030E052
:102A3000A9016BAD7CAD8DAD9EAD0E94E5D281113B
:102A40000FC0AFC320E030E0A901C701B6010E946A
:102A5000E5D2882309F4A5C31BAE1CAE1DAE1EAE85
:102A6000A7019601C701B6010E944AD34B015C0140
:102A70002BAD3CAD4DAD5EADCA01B9010E944AD34C
:102A80009B01AC01C501B4010E94FCD60E9467D92C
:102A9000AF966CAF7DAF8EAF9FAFAF978091D807E9
:102AA0009091D907A091DA07B091DB0727968CAFF8
:102AB0009DAFAEAFBFAF2797A7019601BC01CD0177
:102AC0000E94FCD667966CAF7DAF8EAF9FAF6797C5
:102AD0002091DC073091DD074091DE075091DF0740
:102AE0002F962CAF3DAF4EAF5FAF2F972BAD3CADC8
:102AF0004DAD5EAD2F966CAD7DAD8EAD9FAD2F977C
:102B00000E94FCD66B966CAF7DAF8EAF9FAF6B977C
:102B10008091E0079091E107A091E207B091E3076F
:102B20006F968CAF9DAFAEAFBFAF6F979C01AD01FD
:102B30006091E5107091E6108091E7109091E81097
:102B40000E94FBD663966CAF7DAF8EAF9FAF63974D
:102B50002091E9103091EA104091EB105091EC1067
:102B6000E3962CAF3DAF4EAF5FAFE3978091E407A4
:102B70009091E507A091E607B091E707A3968CAF87
:102B80009DAFAEAFBFAFA397A70196015058239654
:102B90002CAF3DAF4EAF5FAF23978BAD9CADADADCE
:102BA000BEADB0582B968CAF9DAFAEAFBFAF2B97DD
:102BB0002091DD103091DE104091DF105091E01037
:102BC000A7962CAF3DAF4EAF5FAFA79767962CADE2
:102BD0003DAD4EAD5FAD6797A7966CAD7DAD8EAD4B
:102BE0009FADA7970E94FBD66B017C018091E110FD
:102BF0009091E210A091E310B091E410AB968CAFED
:102C00009DAFAEAFBFAFAB976B962CAD3DAD4EADAC
:102C10005FAD6B97BC01CD010E94FBD64B015C01FF
:102C2000A701960123966CAD7DAD8EAD9FAD239728
:102C30000E944AD32B013C01A50194012B966CAD57
:102C40007DAD8EAD9FAD2B970E944AD39B01AC0109
:102C5000C301B2010E94FCD62B013C01A5019401E5
:102C600023966CAD7DAD8EAD9FAD23970E944AD368
:102C70004B015C01A70196012B966CAD7DAD8EAD2D
:102C80009FAD2B970E944AD39B01AC01C501B401B3
:102C90000E94FBD6A30192010E946FD76B017C01B9
:102CA00020E030E0A9010E94E5D287FF0AC02BEDA9
:102CB0003FE049EC50E4C701B6010E94FCD66B012D
:102CC0007C01112351F02BED3FE049EC50E4C701AA
:102CD000B6010E94FBD66B017C0120E030E0A90127
:102CE000C701B6010E94E5D281112AC0A7962CAD7A
:102CF0003DAD4EAD5FADA79727966CAD7DAD8EAD6A
:102D00009FAD27970E94E5D281111AC0AB962CADDA
:102D10003DAD4EAD5FADAB972F966CAD7DAD8EAD3D
:102D20009FAD2F970E94E5D281110AC02BED3FE0A5
:102D300049EC50E4C701B6010E94FCD66B017C014E
:102D4000AF962CAD3DAD4EAD5FADAF97C701B601AF
:102D50000E944AD39B01AC010E944AD34B015C0103
:102D600063962CAD3DAD4EAD5FAD6397CA01B90121
:102D70000E944AD39B01AC01C501B4010E94FCD65C
:102D80000E9467D94B015C012FE632E143E85AE328
:102D90000E94E5D287FD01C2C501B4010E9471D82D
:102DA0000E9445D82D967FAF6EAF2D97DB01AB2BE0
:102DB00031F4E1E0F0E02D96FFAFEEAF2D972D96C8
:102DC0002EAD3FAD2D97B90180E090E00E94E9D291
:102DD0004B015C019B01AC01C701B6010E94D8D731
:102DE00027966CAF7DAF8EAF9FAF2797A50194015B
:102DF00063966CAD7DAD8EAD9FAD63970E94D8D7C5
:102E0000A7966CAF7DAF8EAF9FAFA797A3962CAD63
:102E10003DAD4EAD5FADA397E3966CAD7DAD8EAD90
:102E20009FADE3970E94FBD6A50194010E94D8D7DD
:102E3000AB966CAF7DAF8EAF9FAFAB9727962CADA7
:102E40003DAD4EAD5FAD2797CA01B9010E944AD38F
:102E500020E030E040E05FE30E944AD39B01AC01F8
:102E600060E070E080E89FE30E94FBD663966CAF61
:102E70007DAF8EAF9FAF63976F968CAD9DADAEADBE
:102E8000BFAD6F9789879A87AB87BC87A3962CAD18
:102E90003DAD4EAD5FADA3972D873E874F87588BD5
:102EA0006091370270913802072E000C880B990B45
:102EB0000E94EBD220910002309101024091020267
:102EC000509103020E944AD32AE037ED43E25CE3CB
:102ED0000E944AD36F966CAF7DAF8EAF9FAF6F9756
:102EE0000E94833B9B01AC0128533F4F4F4F5F4FE4
:102EF000A3962CAF3DAF4EAF5FAFA3974FAC2196DB
:102F00005FAC219722966FAC229723967FAC2397D4
:102F100022242394312CD12C2D968EAD9FAD2D974C
:102F20002816390609F425C10E9405BD0E94833B7D
:102F3000DC01CB01A3962CAD3DAD4EAD5FADA397AB
:102F4000821B930BA40BB50BB7FD10C00E94833BF3
:102F50009B01AC0128533F4F4F4F5F4FA3962CAFBF
:102F60003DAF4EAF5FAFA3970E9423A6D39438E145
:102F70003D150CF44BC063962CAD3DAD4EAD5FAD31
:102F800063972B966CAD7DAD8EAD9FAD2B970E9458
:102F90004AD34B015C0127962CAD3DAD4EAD5FADE4
:102FA0002797B201C3010E944AD3A50194010E9450
:102FB000FCD67B018C0163962CAD3DAD4EAD5FAD73
:102FC0006397B201C3010E944AD34B015C0127966B
:102FD0002CAD3DAD4EAD5FAD27972B966CAD7DAD65
:102FE0008EAD9FAD2B970E944AD39B01AC01C501CA
:102FF000B4010E94FBD62B013C01C701D8012B96DE
:103000008CAF9DAFAEAFBFAF2B9756C0B10180E084
:1030100090E00E94E9D227962CAD3DAD4EAD5FAD5C
:1030200027970E944AD34B015C010E94D5D76B01C0
:103030007C01C501B4010E945DD94B015C01A7016F
:10304000960123966CAD7DAD8EAD9FAD23970E940A
:103050004AD32B013C01A50194016BAD7CAD8DAD34
:103060009EAD0E944AD39B01AC01C301B2010E94F4
:10307000FCD62B013C01A501940123966CAD7DADDE
:103080008EAD9FAD23970E944AD34B015C01A701EF
:1030900096016BAD7CAD8DAD9EAD0E944AD39B0178
:1030A000AC01C501B4010E94FBD62B966CAF7DAF7D
:1030B0008EAF9FAF2B97D12C9201A30167966CAD79
:1030C0007DAD8EAD9FAD67970E94FCD669837A83F4
:1030D0008B839C832B962CAD3DAD4EAD5FAD2B9776
:1030E0006B966CAD7DAD8EAD9FAD6B970E94FCD69F
:1030F0006D837E838F839887A7962CAD3DAD4EADB3
:103100005FADA79769857A858B859C850E94FCD6E3
:1031100069877A878B879C87AB962CAD3DAD4EAD8A
:103120005FADAB976D857E858F8598890E94FCD6B3
:103130006D877E878F87988BCE0101960E946AAA41
:10314000C0906F056F96ECACFDAC0EAD1FAD6F97E8
:103150009E01235F3F4FAE01475F5F4FBE016B5F34
:103160007F4FCE0101960E9463994FEF241A340AD3
:10317000D3CEC0906F056F96ECACFDAC0EAD1FAD1D
:103180006F9729EE30E145EE50E161EE70E18DED93
:1031900090E10E9463990E94C6700E94A7B30C94AC
:1031A0006A2BE4EAFDE184918F010F5F1F4F8823B2
:1031B00021F00E94B2B3F801F6CFE1EDF2E0849184
:1031C0008F010F5F1F4F882311F40C946A2B0E940C
:1031D000B2B3F801F4CF80E50E945571882329F03D
:1031E0000E940C726B017C0103C0C12CD12C7601B2
:1031F00083E50E945571882321F00E94AF726B0114
:103200007C010E9474C10E94A7B380918A109091A2
:103210008B10A0918C10B0918D10C80ED91EEA1E93
:10322000FB1E8091A102811105C060E087EE92E053
:103230000E94A2660E94833BDC01CB018C199D0990
:10324000AE09BF09B7FD02C00C946A2B0E9423A6E9
:10325000F1CF8C9A809165058823C1F0E0EFF2E010
:1032600084918F01882351F0082E000C990B0E9445
:10327000B1B90F5F1F4FF8018491F4CF8DE090E05A
:103280000E94B1B98AE090E00E94B1B980916605D0
:10329000882319F10E9456564091A1075091A20728
:1032A0006091A3077091A4074093971650939816C6
:1032B0006093991670939A1686EE95E10E947C456C
:1032C00081E080936405809363051092660588ED24
:1032D00090E09093CE0F8093CD0F669B02C00C942C
:1032E0006D2B0C946A2BD8018D918D01882319F0D8
:1032F0000E94B2B3F8CF8AE00E94B2B30E9474C1B8
:10330000409000025090010260900202709003020F
:103310004092790550927A0560927B0570927C0507
:1033200080913702909138029093780580937705C9
:1033300084E690E090933802809337020E94A7B30E
:1033400081E08093330288E50E945571382E89E52B
:103350000E945571082F8AE50E945571182F80919F
:103360006605813091F5112381F106E114E0F80141
:1033700081918F01882321F10E94B2B3F8CF80910F
:10338000FA0F882309F46DC732E1C32E34E0D32E3F
:10339000E12CF12C20E08091FA0F90E00E2C02C07D
:1033A000959587950A94E2F780FD43C7FFEFEF1AE2
:1033B000FF0A32E0C30ED11C45E0E416F10459F7D0
:1033C0008AE00E94B2B30C946A2B311005C001113F
:1033D00005C091E0912705C0011102C090E001C035
:1033E000912F9093040220E1E8EDF7E0ADEDB0E11C
:1033F00001900D922A95E1F7911105C0311003C09B
:10340000002309F4A4C08111A2C020E030E040E80C
:103410005FE36091D4077091D5078091D6079091B2
:10342000D7070E94FCD62091D9103091DA10409134
:10343000DB105091DC100E94FCD66B017C01609384
:10344000E5107093E6108093E7109093E810809059
:10345000E0079090E107A090E207B090E307A50194
:1034600094010E9422D918160CF071C0A701960190
:10347000C501B4010E94E5D287FF16C080E090E04C
:10348000A0ECB0E48093000290930102A0930202AA
:10349000B0930302C092E007D092E107E092E20706
:1034A000F092E3070E94E97085E595E5A5E0B3E4B5
:1034B0008093000290930102A0930202B093030252
:1034C0000E94E970C090E510D090E610E090E710FF
:1034D000F090E810A70196016091E0077091E10774
:1034E0008091E2079091E3070E9422D91816B4F464
:1034F00080E090E0A0ECB0E48093000290930102A1
:10350000A0930202B0930302C092E007D092E107B9
:10351000E092E207F092E3070E94E9700E9474C112
:1035200040920002509201026092020270920302E5
:10353000A4E2EA2EA4E0FA2ED7018D917D01882322
:1035400019F00E94B2B3F8CF8AE00E94B2B3809122
:103550000402811102C0332099F080E090E00E94C3
:10356000EFB7F2E3EF2EF4E0FF2EF70181917F0138
:10357000882319F00E94B2B3F8CF8AE00E94B2B358
:1035800080910402811102C0002399F081E090E053
:103590000E94EFB7E0E4EE2EE4E0FE2ED7018D911D
:1035A0007D01882319F00E94B2B3F8CF8AE00E940F
:1035B000B2B380910402811102C0112389F082E02C
:1035C00090E00E94EFB70EE414E0F80181918F01C2
:1035D000882319F00E94B2B3F8CF8AE00E94B2B3F8
:1035E0000E942FC3809190078093330280917905C8
:1035F00090917A05A0917B05B0917C0580930002A3
:1036000090930102A0930202B09303028091770588
:103610009091780590933802809337020E94A7B367
:103620000E94BEB00C946A2B109274050C946A2B05
:1036300081E0809374050C946A2B85E40E94557197
:10364000B82E811102C00E9474C15CEF852E52E039
:10365000952E68EDC62E67E0D62E71EDE72E70E14F
:10366000F72E00E010E0A12CD4018D914D010E94B5
:1036700055718823F1F1F601208131814281538116
:10368000E4962FAFE497E5963FAFE597E6964FAF08
:10369000E697E7965FAFE7970E941772D6016D93A2
:1036A0007D938D939C931397E4962FADE497E596C5
:1036B0003FADE597E6964FADE697E7965FADE797A6
:1036C00003301105B1F00E94FBD69B01AC01F7015C
:1036D00060817181828193810E94FCD6D7016D93B4
:1036E0007D938D939C931397C8010E940871AA241F
:1036F000A3940F5F1F4FB4E0CB0ED11CE4E0EE0E9D
:10370000F11C0430110509F0AFCFAA2019F00E9476
:103710002FC306C0BB2021F084EE97E00E944786AD
:103720000E94BEB00C946A2BFFE6EF16F10409F478
:103730005CC508F0D4C03AE2E316F10409F4E2C42F
:1037400008F06EC057E1E516F10409F47DC2B0F54A
:1037500092E1E916F10411F40C944025F8F4B2E07A
:10376000EB16F10408F4AFC1E1E1EE16F10411F03B
:103770000C946A2B60E086E293E00E94A2665F9858
:103780008A9847989FB7F894809108018E7F80931C
:1037900008019FBF479812980C946A2BF5E1EF1629
:1037A000F10409F447C208F049C234E1E316F10418
:1037B00011F00C946A2BEEE3F3E0F9C14BE1E4164F
:1037C000F10409F45FC268F489E1E816F10409F430
:1037D00042C208F049C20E94B0920E941A980C940A
:1037E0006A2BAEE1EA16F10409F488C268F4ECE150
:1037F000EE16F10411F00C946A2B40E060E0C80171
:103800000E9480950C946A2BFFE1EF16F10409F4F5
:10381000D1C320E2E216F10409F47EC30C946A2BB2
:1038200035E5E316F10411F40C94652528F551E50E
:10383000E516F10411F40C94232588F49CE4E916B0
:10384000F10409F463C4ADE4EA16F10409F478C4A0
:10385000BBE4EB16F10411F00C946A2B53C4E3E5BE
:10386000EE16F10411F40C943C2510F00C94402554
:10387000109273050C946A2B2AE6E216F10411F4F7
:103880000C94F024C0F448E6E416F10409F45CC496
:1038900008F00FC58CE5E816F10411F00C946A2BC2
:1038A000BCEFCB2EB2E0DB2E14E3E12E1FE0F12EB5
:1038B00010E00C9476259CE6E916F10409F4DEC4C8
:1038C00010F40C941325BDE6EB16F10409F412C5AF
:1038D000EEE6EE16F10409F475C40C946A2BF3EDD0
:1038E000EF16F10411F40C94E32708F074C03CE8DF
:1038F000E316F10409F4C6C498F555E7E516F1049A
:1039000011F40C940526B0F492E7E916F10411F4D1
:103910000C94F525A3E7EA16F10411F40C94F825AC
:10392000B0E7EB16F10411F00C946A2B87E294E0F7
:103930000E94FDB8E8E7EE16F10411F40C948D2610
:10394000F9E7EF16F10411F40C94932627E7E21639
:10395000F10411F00C946A2BE5E9F5E00C940A26C9
:1039600039ECE316F10411F40C94542798F45EEB4F
:10397000E516F10409F482C688ECE816F10411F4A6
:103980000C940B2791E9E916F10411F00C946A2BC1
:103990000C949826ACECEA16F10411F40C947527FB
:1039A00050F4EBECEE16F10411F00C946A2B0E942B
:1039B0009CB00C946A2BFDECEF16F10411F40C94FE
:1039C00078272EECE216F10411F00C946A2B0E9479
:1039D0006EB10C946A2B30E9E31631E0F30611F472
:1039E0000C94F729B0F55CE2E51651E0F50611F408
:1039F0000C943728A0F49DEDE916F10411F40C9411
:103A0000F327A2EEEA16F10411F40C940C28BCED95
:103A1000EB16F10411F00C946A2B0C94E627EEE2FD
:103A2000EE16E1E0FE0611F40C94832910F40C94D8
:103A300066282FE2E21621E0F20611F40C94F42934
:103A400030E3E31631E0F30611F40C9406290C94EC
:103A50006A2B45EFE41641E0F40611F40C94082BB0
:103A6000C8F48CEAE81681E0F80611F40C94FA29FF
:103A700094EFE91691E0F90611F40C94052BAAE9EC
:103A8000EA16A1E0FA0611F00C946A2B0E9445ABED
:103A90000C946A2BB7EFEB16B1E0FB0611F40C9413
:103AA0000E2B10F40C940B2BF0EAEF16F3E0FF064C
:103AB00009F476C227EEE21623E0F20611F40C9424
:103AC0001A2B0C946A2B80E50E945571882361F0B3
:103AD0000E940C726B017C01BB24B394672B682B92
:103AE000692B31F4B12C04C0B12CC12CD12C76013E
:103AF00083E50E945571882399F00E94AF726B0193
:103B00007C01B1100FC0672B682B692B59F4D801C9
:103B10008C91882339F061E0C8010E94B76607C024
:103B2000BB20A9F360E085E193E00E94A26681E0FA
:103B3000809367050E9474C10E94A7B3C114D10489
:103B4000E104F104E9F080918A1090918B10A0912A
:103B50008C10B0918D10C80ED91EEA1EFB1E0E945B
:103B6000833BDC01CB018C199D09AE09BF09B7FF6E
:103B70001AC0809167058823B1F00E9423A6EFCF79
:103B800080916705882319F00E9423A6F9CF8091C0
:103B90001A1460E0882319F086E093E002C084EFF5
:103BA00092E00E94A266109267050C946A2B8491A1
:103BB0008F010F5F1F4F882321F00E94B2B3F801DD
:103BC000F6CF1092A1161092A01640E050E0BA0174
:103BD0008CE494E10E947C458BE1ECE4F4E1DE01AD
:103BE000159601900D928A95E1F780914A14909173
:103BF0004B149C838B8384EE93E09A83898340E00B
:103C000050E0BE016F5F7F4F85E994E00E947F9393
:103C1000CE0101960E94F6B8EFE2F3E084918F01A5
:103C20000F5F1F4F882311F40C946A2B0E94B2B3CC
:103C3000F801F4CF0E9424910C946A2B10921A146C
:103C400010921B140C946A2B40E061E0C8010E94A2
:103C500080950C946A2B81E0809371098093B80F52
:103C600010921A140C946A2B80911B14882311F45F
:103C70000C946A2B83E50E94557181110C947E2B64
:103C80000C946A2B80911B14882351F1EFE4F3E02C
:103C900084918F010F5F1F4F882321F00E94B2B3E0
:103CA000F801F6CF60919716709198168091991649
:103CB00090919A164AE00E94DFB38FE20E94B2B35D
:103CC0006091931670919416809195169091961626
:103CD0004AE00E94DFB38AE00E94B2B30C946A2BE0
:103CE000E1E6F3E084918F010F5F1F4F882311F409
:103CF0000C946A2B0E94B2B3F801F4CF80911B148C
:103D0000882311F40C946A2B86EE95E10E940148F9
:103D100086EE95E10E94C24910921914109218146F
:103D2000E0907505F090760580911B14882311F4BE
:103D30000C946A2B0E9450841D8218861C821B8260
:103D400084EE93E09A83898388E494E190936814E5
:103D500080936714F70180818F3209F068C06FE2A9
:103D600070E0C7010E944FDA8C010F5F1F4F9E0168
:103D70002F5F3F4F49010115110509F45EC06FE245
:103D800070E0C8010E944FDA6C01009709F456C038
:103D90000817190708F052C05C01A01AB10AA50162
:103DA000B801CE0180960E9478DAE0E2F0E0EC0FF4
:103DB000FD1FEA0DFB1D10828E01005E1F4FD80112
:103DC0008D918D01882319F00E94B2B3F8CF8AE05B
:103DD0000E94B2B360916714709168146115710507
:103DE00011F06C5F7F4F21E0AE01405E5F4FCE016E
:103DF00005960E94B24B811112C0BE01605E7F4FDA
:103E000088E993E00E94B9B38EE20E94B2B38AE0DF
:103E10000E94B2B3C4010E94F6B80C946A2B90922F
:103E200068148092671486010F5F1F4FA4CF89E644
:103E300094E19093681480936714870160916714EC
:103E4000709168146115710511F06C5F7F4F18A2B5
:103E50001BA222E0A801CE0180960E94B24B8111E4
:103E600002C0F12C14C0CE0180960E94ED928823EE
:103E7000C1F361E0CE0180960E94E647009789F386
:103E800025EEFC0120831BA20E948A42F82ECE015F
:103E900080960E9479B3FF2009F1E2E7F3E0849174
:103EA0007F012FEFE21AF20A882321F00E94B2B3B9
:103EB000F701F5CFD8018D918D01882319F00E946B
:103EC000B2B3F8CF8AE00E94B2B310929716109264
:103ED00098161092991610929A1618C0E0E8F3E01E
:103EE00084917F01BFEFEB1AFB0A882321F00E9427
:103EF000B2B3F701F5CFF80181918F01882319F052
:103F00000E94B2B3F8CF8EE20E94B2B3CE01019606
:103F10000E94F6B80C946A2B80911A1481110E94A9
:103F200074C1009175051091760561E270E0C801D9
:103F30000E944FDA009719F08C010F5F1F4F80E548
:103F40000E945571882349F0FF24F39480916805FD
:103F5000909169058017910708F0F12C80911B144E
:103F6000882311F40C946A2B4F2D61E0C8010E9444
:103F7000809583E50E945571882349F080916805FA
:103F8000909169058017910710F40C948F2B0E9473
:103F9000B092F1100C946A2B0E941A980C946A2B20
:103FA00081E08093191440E060E0C8010E94809590
:103FB0000C946A2B0E9493874CE3C42ED12CE12CE5
:103FC000F12CA70196010E94C0D6762E672ECA0159
:103FD000B901A70196010E94C0D66B017C01CA01FC
:103FE000B90128E130E040E050E00E94C0D64B012A
:103FF0005C01C9016DE671E00E94C4D98E010F5FBA
:104000001F4F6115710599F06F927F92DF92CF92E9
:104010009F928F929F938F937F936F9384ED93E002
:104020009F938F931F930F930E94B6D212C0009755
:10403000B1F06F927F92DF92CF929F928F929F9377
:104040008F9384EC93E09F938F931F930F930E9421
:10405000B6D20FB6F894DEBF0FBECDBF36C0811406
:104060009104A104B10479F06F927F92DF92CF9214
:104070009F928F9288EB93E09F938F931F930F9360
:104080000E94B6D2E6CFC114D104E104F10469F074
:104090006F927F92DF92CF9280EB93E09F938F930A
:1040A0001F930F930E94B6D2D4CF6F927F928CEA67
:1040B00093E09F938F931F930F930E94B6D20F901C
:1040C0000F900F900F900F900F9060E0C8010E942A
:1040D000B766E4E5F2E284917F01BFEFEB1AFB0AD9
:1040E000882321F00E94B2B3F701F5CFB80188EE22
:1040F00093E00E94B9B38AE00E94B2B30E947FB3FA
:104100000C946A2B0E941A980C946A2B80910A14C2
:1041100090910B14019711F00C946A2B82E090E0BF
:1041200090930B1480930A140E94833B60931414A1
:104130007093151480931614909317140C946A2B93
:104140000E9498B90C946A2B88E690E00E949771BF
:1041500081110C946A2B8091FA0F83FF02C00C949A
:104160006A2B83E50E945571882341F10E941772E2
:104170000E94EFB80E94177220E030E04AEA52E451
:104180000E94E5D218163CF00E9498B960E080E0E9
:1041900094E00E94A2660E94177220910013309151
:1041A000011340910213509103130E9422D9181653
:1041B0002CF460E085EF93E00E94A2660E9479CA29
:1041C0000C946A2B8EE40E945571882311F40C9490
:1041D0006A2B0E946FCA60936A0570936B05809387
:1041E0006C0590936D050C946A2B83E50E945571C4
:1041F000882319F00E94687101C080E08093FA0F53
:10420000E4E5F2E284918F010F5F1F4F882321F0D4
:104210000E94B2B3F801F6CFE0E2F4E084918F019E
:104220000F5F1F4F882309F4AAC80E94B2B3F80198
:10423000F5CFBB24B394B20E222319F08CE20E9476
:10424000B2B3F60125913491F901849189010F5F90
:104250001F4F882321F00E94B2B39801F5CF2B2D78
:10426000A5C8ECE1F4E084918F010F5F1F4F882314
:1042700009F4A6C80E94B2B3F801F5CF1092340237
:104280000C946A2B8091FA0F83FF02C00C946A2B66
:1042900083E50E945571882311F40C946A2B0E94C7
:1042A00017720E9440D87093D00F6093CF0F0C9478
:1042B0006A2B89E690E00E94977181110C942F2C53
:1042C00080911A14811103C081E08093EC07E0E330
:1042D000F4E084918F010F5F1F4F882321F00E942B
:1042E000B2B3F801F6CF0E94DA6F8AE00E94B2B34F
:1042F0000C942F2C8DE690E00E94977181110C9404
:104300006A2B8091FA0F83FF02C00C946A2B83E51D
:104310000E94557128968FAF289781110C94A12B7C
:1043200082E50E94557181110C94A12B08C08DE08B
:1043300090E00E94B1B98AE090E00E94B1B90E9479
:1043400079CA81E08093340223961CAE1DAE1EAE66
:104350001FAE239727961CAE1DAE1EAE1FAE27972D
:104360001BAE2C961FAE2C97FCE36096FFAF6097B8
:104370002CE164962FAF649736E468963FAF689758
:10438000C12CD12C90E8E92E2FEBF22E812C912C10
:1043900054016091FE127091FF12072E000C880BE1
:1043A000990B0E94EBD2162F072F782E692E262FFD
:1043B000372F482F592FB601C7010E94E5D2882315
:1043C00021F120910013309101134091021350917B
:1043D0000313612F702F872D962D0E94E5D2881F21
:1043E0008827881F8BAF28964FAD2897442389F0E4
:1043F000882379F080913402882309F4F3C060E0C7
:104400008FE394E00E94A266EDC01C2D0D2D7E2C42
:104410006F2C0E94833B6B017C01DC01CB01279652
:104420002CAD3DAD4EAD5FAD2797821B930BA40B1A
:10443000B50BB7FD47C0D701C60188519C4FAF4FA0
:10444000BF4F27968CAF9DAFAEAFBFAF27970E94EF
:10445000DA6FE0E5F4E084912F019FEF491A590AE1
:10446000882321F00E94B2B3F201F5CF81149104A8
:10447000A104B104D1F0D501C401805F984DAF4FC4
:10448000BF4FBC01CD016C197D098E099F0928EE33
:1044900033E040E050E00E94C0D6CA01B9010E945A
:1044A00060B48AE00E94B2B30DC0EDE4F4E0849100
:1044B0002F01AFEF4A1A5A0A882321F00E94B2B3A3
:1044C000F201F5CF0E9423A60E94A7B3209000130B
:1044D0003090011340900213509003139101A201F8
:1044E000612F702F872D962D0E94FBD69F77811408
:1044F0009104A104B10449F420E030E040E85FE316
:104500000E94E5D287FF0BC008C020E030E040E405
:1045100050E40E9422D9181614F446015701BBAD8D
:10452000BB2309F443C023962CAD3DAD4EAD5FAD2A
:104530002397211531054105510541F0D701C601E9
:10454000821B930BA40BB50BB7FD30C09101A201E8
:104550002C966FAD2C9760967FAD609764968FAD6B
:10456000649768969FAD68970E94FBD620E030E084
:1045700040EC5FE30E94E5D287FD3CCFD701C60146
:10458000805A9541AF4FBF4F23968CAF9DAFAEAFD2
:10459000BFAF23972C962FAE2C9760963FAE6097B7
:1045A00064964FAE649768965FAE689780913402C8
:1045B000882309F41FCF81149104A104B10429F4C4
:1045C000C12ED02EE72CF62CE4CE90E1C91A97E24A
:1045D000D90AE108F108C818D908EA08FB08F7FE6B
:1045E00009CFEECFEBE3F4E084918F01882351F003
:1045F000082E000C990B0E94B1B90F5F1F4FF801F4
:104600008491F4CF8DE090E00E94B1B98AE090E00F
:104610000E94B1B980911A148823D1F0E7E3F4E045
:1046200084918F01882351F0082E000C990B0E9471
:10463000B1B90F5F1F4FF8018491F4CF8DE090E086
:104640000E94B1B98AE090E00E94B1B90C946A2B43
:104650008091ED07882311F40C946A2BE3E3F4E0D6
:1046600084918F01882351F3082E000C990B0E942E
:10467000B1B90F5F1F4FF8018491F4CF8091FA0F09
:1046800083FF02C00C946A2BE7E9F4E084918F0168
:10469000882351F0082E000C990B0E94B1B90F5FCE
:1046A0001F4FF8018491F4CF8DE090E00E94B1B9E2
:1046B0008AE090E00E94B1B960E08AE894E00E944C
:1046C000A26683E50E94557128968FAF28978111C5
:1046D00005C082E50E9455718823A1F00E941772DF
:1046E0000E9440D87093D00F6093CF0F0E94177232
:1046F00020E030E040EA50E40E9422D9181614F479
:104700000E941A9881E08093340280916F05809313
:104710006E0523961CAE1DAE1EAE1FAE23972796C8
:104720001CAE1DAE1EAE1FAE27971BAE2C961FAE45
:104730002C97FCE36096FFAF60972CE164962FAF57
:10474000649736E468963FAF6897C12CD12C00E897
:10475000E02E8FEBF82E812C912C54016091CF0F1D
:104760007091D00F072E000C880B990B0E94EBD292
:10477000162F072F782E692E262F372F482F592FC7
:10478000B601C7010E94E5D2882319F12091BD0E20
:104790003091BE0E4091BF0E5091C00E612F702F10
:1047A000872D962D0E94E5D2881F8827881F8BAF02
:1047B00028964FAD2897442381F0882371F080918B
:1047C0003402882309F486C7EFE7F4E084918F016F
:1047D000EDC01C2D0D2D7E2C6F2C0E94833B6B0198
:1047E0007C01DC01CB0127962CAD3DAD4EAD5FAD1C
:1047F0002797821B930BA40BB50BB7FD47C0D701BE
:10480000C60188519C4FAF4FBF4F27968CAF9DAFCD
:10481000AEAFBFAF27970E94DA6FE6E8F4E084916D
:104820002F019FEF491A590A882321F00E94B2B341
:10483000F201F5CF81149104A104B104D1F0D501A6
:10484000C401805F984DAF4FBF4FBC01CD016C19C3
:104850007D098E099F0928EE33E040E050E00E9478
:10486000C0D6CA01B9010E9460B48AE00E94B2B306
:104870000DC0E3E8F4E084912F01AFEF4A1A5A0A21
:10488000882321F00E94B2B3F201F5CF0E9423A643
:104890000E94A7B32090BD0E3090BE0E4090BF0E78
:1048A0005090C00E9101A201612F702F872D962D7F
:1048B0000E94FBD69F7781149104A104B10449F4AE
:1048C00020E030E040E85FE30E94E5D287FF0BC0C4
:1048D00008C020E030E040E450E40E9422D91816DD
:1048E00014F446015701BBADBB2309F443C0239622
:1048F0002CAD3DAD4EAD5FAD239721153105410582
:10490000510541F0D701C601821B930BA40BB50BD7
:10491000B7FD30C09101A2012C966FAD2C97609627
:104920007FAD609764968FAD649768969FAD6897EA
:104930000E94FBD620E030E040EC5FE30E94E5D22D
:1049400087FD3DCFD701C601805A9541AF4FBF4F7C
:1049500023968CAF9DAFAEAFBFAF23972C962FAEF3
:104960002C9760963FAE609764964FAE64976896BA
:104970005FAE689780913402882309F420CF8114B8
:104980009104A104B10429F4C12ED02EE72CF62CF9
:10499000E5CE90E1C91A97E2D90AE108F108C818F2
:1049A000D908EA08FB08F7FE0ACFEECF882351F0BA
:1049B000082E000C990B0E94B1B90F5F1F4FF80130
:1049C0008491F4CF8DE090E00E94B1B98AE090E04C
:1049D0000E94B1B960E085E794E00E94A2667AC6C1
:1049E00083E50E945571882321F00E9463CA8C01DF
:1049F00002C003EB10E080E50E945571882319F096
:104A00000E9463CA02C080E090E09801093D110550
:104A100010F028ED30E0892B09F05CC63093CE0F02
:104A20002093CD0F57C680E50E945571811105C0B6
:104A30001092CE0F1092CD0F4DC60E9463CA892BE3
:104A400009F048C6F5CF0E94D7830E9474C10E9426
:104A500057AA1092CE0F1092CD0F68EE73E080E04F
:104A600090E00E944B3B60E08BE994E00E94A266DC
:104A70000E94C8660ED72EC681E0809373052AC6B1
:104A800083E50E945571882359F00E94AF726093AC
:104A9000EB027093EC028093ED029093EE021AC643
:104AA00088E50E9455718111EDC589E50E94557117
:104AB0008111E8C58AE50E9455718111E3C585E43D
:104AC0000E9455718111DEC581C683E50E94557132
:104AD000882309F4FFC50E94AF7260938E10709313
:104AE0008F108093901090939110F4C5D6018D9102
:104AF0006D010E945571882309F46DC0133009F0CF
:104B000063C00E9417724B015C0120E030E040EA74
:104B100051E40E94E5D287FF4EC0A5019401609147
:104B2000400F7091410F8091420F9091430F0E946E
:104B3000D8D72B013C019B01AC016091A30F709170
:104B4000A40F8091A50F9091A60F0E944AD3609365
:104B5000A30F7093A40F8093A50F9093A60FA301AA
:104B600092016091930F7091940F8091950F9091A5
:104B7000960F0E944AD36093930F7093940F809383
:104B8000950F9093960F6091321770913317809123
:104B90003417909135170E94E9D2A30192010E9427
:104BA0004AD30E9445D8609332177093331780938D
:104BB0003417909335178092400F9092410FA09236
:104BC000420FB092430F07C00E941772F701608333
:104BD0007183828393831F5FF4E0EF0EF11C143026
:104BE00009F084CF0E94AAC275C50E94BEB072C5EA
:104BF000EBEAF4E084918F010F5F1F4F882309F4E3
:104C000069C50E94B2B3F801F5CF60E0C8010E9407
:104C1000B76660C584918F010F5F1F4F882321F015
:104C20000E94B2B3F801F6CFEDE8F5E084918F0170
:104C30000F5F1F4F882321F00E94B2B3F801F6CF17
:104C4000659B03C008EF13E002C00DEF13E0D8012D
:104C50008D918D01882319F00E94B2B3F8CF8AE0BC
:104C60000E94B2B3E5E8F5E084918F010F5F1F4F1A
:104C7000882321F00E94B2B3F801F6CF4A9B03C00B
:104C800008EF13E002C00DEF13E0F80181918F01EE
:104C9000882319F00E94B2B3F8CF8AE00E94B2B321
:104CA000EDE7F5E084918F010F5F1F4F882321F01E
:104CB0000E94B2B3F801F6CF8091090186FF03C0CC
:104CC00008EF13E002C00DEF13E0D8018D918D01C4
:104CD000882319F00E94B2B3F8CF8AE00E94B2B3E1
:104CE000E5E7F5E084918F010F5F1F4F882321F0E6
:104CF0000E94B2B3F801F6CF4B9B03C008EF13E05C
:104D000002C00DEF13E0F80181918F01882311F4A7
:104D10000C94E0190E94B2B3F6CF81E08093330285
:104D200080939007D7C41092330210929007D2C498
:104D300083E50E9455718823F1F00E94FF71182FBE
:104D40008230D0F0E4EAFDE184918F010F5F1F4FC4
:104D5000882321F00E94B2B3F801F6CFEFEAF5E024
:104D600084918F010F5F1F4F882309F4B3C40E9401
:104D7000B2B3F801F5CF10E088E40E9455718823A2
:104D8000A9F00E94FF71E12FF0E08A3A910534F01A
:104D90008B3F91052CF08AEF90E002C08AEA90E008
:104DA000EE0FFF1FE255F84F9183808386E40E9447
:104DB00055718823A1F00E94FF71E12FF0E0EE0F02
:104DC000FF1FEE54F84F8F3F910519F014F08FEF4D
:104DD00090E097FF02C080E090E09183808382E4BE
:104DE0000E945571882309F475C40E94FF71E12F58
:104DF000F0E08530910534F0803691052CF08FE598
:104E000090E002C085E090E0EE0FFF1FE655F84FFE
:104E1000918380835FC488EC90E00E949771811138
:104E200059C484E40E945571882309F453C40E9434
:104E3000177211E020E030E0A9010E94E5D2811153
:104E400001C010E01093AF0F112359F100916E05CE
:104E500010E00E941772000F111F000F111FF801C0
:104E6000E456FD4F608371838283938320E030E0BA
:104E7000A90160919C0270919D0280919E02909187
:104E80009F020E94E5D281110CC080E090E0A0EE6C
:104E9000BFE380939C0290939D02A0939E02B093E7
:104EA0009F020E94D8A516C43FE6E32E3FE0F32EF2
:104EB0000CEF12E044E0D42ED00ED8018D918D017C
:104EC0000E945571882349F00E9417720E9445D8AC
:104ED000F7016083718382839383F4E0EF0EF11C0A
:104EE000D012EBCF0E947EC1F5C30E943BB0F2C34B
:104EF00083E50E945571882351F00E9417726093D8
:104F0000830F7093840F8093850F9093860F84E5B1
:104F10000E945571882351F00E94177260937F0F91
:104F20007093800F8093810F9093820F82E40E9490
:104F30005571882351F00E940C726093F60F7093A4
:104F4000F70F8093F80F9093F90F88E50E94557141
:104F5000882351F00E9417726093970F7093980FF7
:104F60008093990F90939A0F89E50E945571882339
:104F700051F00E94177260939B0F70939C0F809367
:104F80009D0F90939E0F8AE50E945571882351F0E2
:104F90000E94177260939F0F7093A00F8093A10FD0
:104FA0009093A20F85E40E945571882309F492C35F
:104FB0000E9417726093A30F7093A40F8093A50FA4
:104FC0009093A60F87C30E94B1AF84C383E50E946C
:104FD0005571882309F47EC30E94FF7190933802B3
:104FE0008093370277C38DED90E00E949771811115
:104FF00071C383E50E945571882309F46BC3009146
:105000006E0510E00E94FF71000F111FF801EB5CAC
:10501000FD4F918380835EC380E50E945571882394
:1050200009F458C30E94FF718C0183E50E945571F9
:10503000882321F00E94FF717C0103C0EE24EA94D2
:10504000FE2CC7010196039708F044C317FD42C325
:10505000E0E0F3E0C8019927219131912817390741
:1050600009F438C323E0E035F207B1F7D0C383E594
:105070000E945571882321F00E94FF718C0102C0AB
:105080000EE610E080E50E945571882319F00E9419
:10509000FF7102C088EE93E06C01990FEE08FF08E3
:1050A0001016110674F440E050E0BA01C8010E94E5
:1050B000C987C701B6010E944B3B8FE10E94CC60BB
:1050C00009C3C701B6010E944B3B04C385E40E949B
:1050D0005571811110C080E50E945571882399F0A7
:1050E0000E94177260931502709316028093170244
:1050F0009093180208C00E94FF71181619065CF7F9
:10510000E4EAFDE171C089E40E945571882381F0D1
:105110000E9417722CE933E549E45EE30E944AD30A
:1051200060931D0270931E0280931F0290932002D1
:1051300084E40E945571882381F00E9417722CE943
:1051400033E549E45EE30E94D8D760931902709377
:105150001A0280931B0290931C02E4E5F2E2849110
:105160008F010F5F1F4F882321F00E94B2B3F80117
:10517000F6CF40911502509116026091170270917E
:10518000180289ED95E00E941DB52CE933E549E44C
:105190005EE360911D0270911E0280911F0290914A
:1051A00020020E94D8D7AB01BC0185ED95E00E949A
:1051B00002B52CE933E549E45EE360911902709190
:1051C0001A0280911B0290911C020E944AD3AB01EB
:1051D000BC0181ED95E00E9402B58AE00E94B2B365
:1051E00079C20E94B2B3F80184918F010F5F1F4F03
:1051F0008111F7CF0DE514E0D8018D918D01882341
:1052000011F40C94E0190E94B2B3F6CF80E50E942D
:105210005571882351F00E9417726093F8027093C1
:10522000F9028093FA029093FB0289E40E9455717F
:10523000882381F00E9417722CE933E549E45EE38C
:105240000E944AD36093F4027093F5028093F602B1
:105250009093F70284E40E945571882381F00E94A4
:1052600017722CE933E549E45EE30E94D8D76093D6
:10527000F0027093F1028093F2029093F302E4E55E
:10528000F2E284918F010F5F1F4F882321F00E946B
:10529000B2B3F801F6CF4091F8025091F902609153
:1052A000FA027091FB0285EE95E00E941DB52CE993
:1052B00033E549E45EE36091F4027091F502809178
:1052C000F6029091F7020E94D8D7AB01BC0181EEA3
:1052D00095E00E9402B52CE933E549E45EE3609174
:1052E000F0027091F1028091F2029091F3020E941B
:1052F0004AD3AB01BC018DED95E00E9402B58AE076
:105300000E94B2B3E7C183E50E945571082F88233C
:10531000A1F00E9417726093E1027093E202809301
:10532000E3029093E40211E020E030E0A9010E9442
:10533000E5D2811110E01093F50F80E50E945571C0
:10534000182F8823A9F020E030E0A9016091E10244
:105350007091E2028091E3029091E4020E94E5D212
:10536000882319F00E94D471182F1093F50FB2C141
:105370000111B0C1E4E5F2E284918F010F5F1F4F8C
:10538000882321F00E94B2B3F801F6CF8091F50F87
:10539000811103C067E074E002C06AEF73E08EEF32
:1053A00095E00E94B9B320E030E040E05FE3609117
:1053B000E1027091E2028091E3029091E4020E9486
:1053C000FCD60E9440D88DEE95E00E947AB4E9EEBA
:1053D000F5E084918F010F5F1F4F882309F47AC194
:1053E0000E94B2B3F801F5CF0E9493AB73C10E9443
:1053F00074C170C188ED282E87E0382EECECF7E000
:10540000FCAFEBAF2AEB3EE021963FAF2EAF2197EA
:1054100000E010E021964EAD5FAD21974A5B5E4003
:1054200029965FAF4EAF29972196AEADBFAD2197BC
:105430008D912196BFAFAEAF2197882309F4B0C0FC
:10544000F801E65CFD4F2081318142815381F801F2
:10545000EA5BFD4F60817181828193810E94FCD65D
:1054600020E030E040E05FE30E944AD39B01AC01C2
:10547000F10160817181828193810E9422D9181685
:1054800034F4C80182589E4D0E9473B303C060E09B
:1054900070E0CB01D1014D905D906D907C90EBADB3
:1054A000FCADC080D180E280F380A70196010E940C
:1054B000FCD6F801EF52FF4E2081318142815381A9
:1054C0000E94FCD69B01AC01C301B2010E94FBD635
:1054D0004B015C0120E030E040EA51EC0E9422D90F
:1054E00018167CF520E030E040EA51E4C501B40133
:1054F0000E94E5D287FF25C0A5019401C701B6012E
:105500000E94FBD64B015C01A70196010E94FBD6CD
:105510009B01AC01C301B2010E94FCD6D1016D9385
:105520007D938D939C931397EBADFCAD808291821C
:10553000A282B38229968EAD9FAD29970E940871F1
:105540002FC0E4EAFDE184918F010F5F1F4F882394
:1055500021F00E94B2B3F801F6CFEFE2F6E08491B9
:105560008F010F5F1F4F882321F00E94B2B3F80113
:10557000F6CF61E081E296E00E94A2660E94EC7D97
:1055800088E290E09A83898388EC90E099A388A3CD
:10559000BE016F5F7F4FCE0180960E94C9CA9AC03C
:1055A000F4E02F0E311C0C5F1F4F2BAD3CAD2C5F78
:1055B0003F4F3CAF2BAF0C30110509F02BCF0E94B1
:1055C0002FC30E94BEB060E081E196E00E94A26617
:1055D00083E992E099A388A308EC10E01A83098379
:1055E000BE01605E7F4FCE0101960E94C9CA8AEB60
:1055F00092E099A388A31A830983BE01605E7F4F5E
:10560000CE0101960E94C9CA65C00E94545462C06E
:105610000E948E565FC00E94CD525CC083E50E94FE
:105620005571882321F00E94D47191E089270E944E
:10563000324F50C081E08093EF021092850983E5DC
:105640000E945571882309F4C6C00E94D47181114B
:1056500041C0C1C0E0926F05E4E5F2E284918F01A0
:105660000F5F1F4F882321F00E94B2B3F801F6CFDD
:10567000B70177278DE496E00E947AB48AE00E9411
:10568000B2B328C00E9474C188E50E945571882376
:1056900019F05F9A1092C90789E50E945571882315
:1056A00021F08A9A479A1092CA078AE50E9455719A
:1056B000882359F09FB7F894809108018160809306
:1056C00008019FBF479A1092CB0785E40E9455714D
:1056D0008111129A0E94FCAAC2C081E080936205E7
:1056E00087E192EB909312028093110280916A00FD
:1056F0008F7C806180936A00EE9AECCF0E946FCA23
:10570000AB01BC014093971650939816609399167D
:1057100070939A1686EE95E10E947C45DBCF0E943D
:105720006FCAAB01BC0140939716509398166093D3
:10573000991670939A1686EE95E10E947C450C941A
:10574000C71F0E9417720E94EFB80E94177220E0D4
:1057500030E04AEA52E40E94E5D2181644F00E9472
:1057600098B960E083E694E00E94A26602C00E94BD
:105770001A986091FE127091FF12072E000C880B90
:10578000990B0E94EBD220910013309101134091AC
:105790000213509103130E9422D918162CF460E0D2
:1057A00088E594E00E94A266E4E5F4E084918F012C
:1057B000882311F40C949721082E000C990B0E9459
:1057C000B1B90F5F1F4FF8018491F2CF0E9474C1ED
:1057D0000E9457AA7FCF0E941BAB7CCFE4E5F2E288
:1057E00084918F010F5F1F4F882321F00E94B2B375
:1057F000F801F6CF6D2D7C2D8FE596E00E94B9B3B0
:1058000082E20E94B2B38AE00E94B2B363CF0E94E8
:1058100074C1D02E60E0802F0E94483A3FEFE3161B
:10582000F30659F4802F0E9438C331E020E0892B21
:1058300009F030E0032F122F05C0EA94EF2861F041
:1058400000E010E08D2D0E9438C38017910709F405
:1058500041CF0E9423A6F6CF01E010E0F3CFCA5853
:10586000DF4F0FB6F894DEBF0FBECDBFDF91CF91F3
:105870001F910F91FF90EF90DF90CF90BF90AF906E
:105880009F908F907F906F905F904F903F902F9060
:1058900008952F923F924F925F926F927F928F92D4
:1058A0009F92AF92BF92CF92DF92EF92FF920F93AF
:1058B0001F93CF93DF93CDB7DEB7C455D1090FB691
:1058C000F894DEBF0FBECDBF8091140790911507ED
:1058D0000397F4F4CE0101966C018CE8282E84E045
:1058E000382E8E010D5C1F4F90E6892E9AEE992E70
:1058F000A12CB12C8AEC93E10E9407B61816190668
:105900003CF4809114079091150704970CF462C041
:105910008091140790911507009791F0019790934B
:105920001507809314078091010790910207019653
:1059300064E070E00E94D8D9909302078093010739
:10594000C0900013D0900113E0900213F090031365
:1059500020E030E040EA50E4C701B6010E94E5D201
:1059600087FF02C00C94B93820E030E84EE853E4D9
:10597000C701B6010E9422D9181614F40C94B93844
:10598000809112079091130781389E4310F40C9474
:10599000C43887E08093840910921307109212078D
:1059A000ECEEF8E084918F01882351F0082E000C72
:1059B000990B0E94B1B90F5F1F4FF8018491F4CF8A
:1059C0008DE090E00E94B1B98AE090E00E94B1B908
:1059D0000C94C4388AEC93E10E94CBB580931107F4
:1059E00020910E0730910F078A3069F08D3059F001
:1059F0008A3321F490911007992329F02F3531052E
:105A000014F40C94A4352115310519F410921007E3
:105A10007FCF80910C0790910D0740E6542E589E41
:105A20003001599E700C1124260D371DF901EF57D6
:105A3000FA4F10822091100721110C949E3510927C
:105A40001007FC01E85FF84F1082C3018F579A4F8F
:105A50007C016EE470E00E944FDA009709F440C0C8
:105A60009093800580937F058E199F09860D971D61
:105A70004AE050E060E070E08E579A4F0E9411D0EB
:105A800060936A0570936B0580936C0590936D0528
:105A90002091821030918310409184105091851094
:105AA0002F5F3F4F4F4F5F4F60900C0770900D0777
:105AB000621773078407950711F40C94C735569C39
:105AC000C001579C900D112467EE78E08F579A4FD4
:105AD0000E949CD2892B11F00C94C7350C942D3662
